{
	"contracts/KipuBank.sol": {
		"KipuBank": {
			"abi": [
				{
					"inputs": [
						{
							"internalType": "uint256",
							"name": "capWei",
							"type": "uint256"
						},
						{
							"internalType": "uint256",
							"name": "maxTransactions",
							"type": "uint256"
						}
					],
					"stateMutability": "nonpayable",
					"type": "constructor"
				},
				{
					"inputs": [
						{
							"internalType": "uint256",
							"name": "requested",
							"type": "uint256"
						},
						{
							"internalType": "uint256",
							"name": "cap",
							"type": "uint256"
						}
					],
					"name": "capExceeded",
					"type": "error"
				},
				{
					"inputs": [
						{
							"internalType": "uint256",
							"name": "have",
							"type": "uint256"
						},
						{
							"internalType": "uint256",
							"name": "need",
							"type": "uint256"
						}
					],
					"name": "insufficientBalance",
					"type": "error"
				},
				{
					"inputs": [],
					"name": "transactionFailed",
					"type": "error"
				},
				{
					"inputs": [
						{
							"internalType": "address",
							"name": "thief",
							"type": "address"
						},
						{
							"internalType": "address",
							"name": "victim",
							"type": "address"
						}
					],
					"name": "wrongUser",
					"type": "error"
				},
				{
					"inputs": [],
					"name": "zeroDeposit",
					"type": "error"
				},
				{
					"anonymous": false,
					"inputs": [
						{
							"indexed": false,
							"internalType": "address",
							"name": "client",
							"type": "address"
						},
						{
							"indexed": false,
							"internalType": "uint256",
							"name": "amount",
							"type": "uint256"
						}
					],
					"name": "depositDone",
					"type": "event"
				},
				{
					"anonymous": false,
					"inputs": [
						{
							"indexed": false,
							"internalType": "address",
							"name": "client",
							"type": "address"
						},
						{
							"indexed": false,
							"internalType": "uint256",
							"name": "amount",
							"type": "uint256"
						}
					],
					"name": "withdrawalDone",
					"type": "event"
				},
				{
					"inputs": [],
					"name": "WITHDRAW_MAX",
					"outputs": [
						{
							"internalType": "uint256",
							"name": "",
							"type": "uint256"
						}
					],
					"stateMutability": "view",
					"type": "function"
				},
				{
					"inputs": [
						{
							"internalType": "address",
							"name": "client",
							"type": "address"
						}
					],
					"name": "balances",
					"outputs": [
						{
							"internalType": "uint256",
							"name": "amount",
							"type": "uint256"
						}
					],
					"stateMutability": "view",
					"type": "function"
				},
				{
					"inputs": [],
					"name": "bankCap",
					"outputs": [
						{
							"internalType": "uint256",
							"name": "",
							"type": "uint256"
						}
					],
					"stateMutability": "view",
					"type": "function"
				},
				{
					"inputs": [],
					"name": "bankStats",
					"outputs": [
						{
							"internalType": "uint256",
							"name": "totalDeposits",
							"type": "uint256"
						},
						{
							"internalType": "uint256",
							"name": "totalwithdrawal",
							"type": "uint256"
						}
					],
					"stateMutability": "view",
					"type": "function"
				},
				{
					"inputs": [],
					"name": "deposit",
					"outputs": [],
					"stateMutability": "payable",
					"type": "function"
				},
				{
					"inputs": [],
					"name": "transactionsCounter",
					"outputs": [
						{
							"internalType": "uint256",
							"name": "",
							"type": "uint256"
						}
					],
					"stateMutability": "view",
					"type": "function"
				},
				{
					"inputs": [
						{
							"internalType": "uint256",
							"name": "value",
							"type": "uint256"
						}
					],
					"name": "withdrawal",
					"outputs": [],
					"stateMutability": "payable",
					"type": "function"
				},
				{
					"inputs": [],
					"name": "withdrawalCounter",
					"outputs": [
						{
							"internalType": "uint256",
							"name": "",
							"type": "uint256"
						}
					],
					"stateMutability": "view",
					"type": "function"
				}
			],
			"devdoc": {
				"author": "Miosio",
				"custom:security": "No usar en producción.",
				"kind": "dev",
				"methods": {
					"bankStats()": {
						"details": "esta función devuelve los depitos y retiros hechos"
					},
					"deposit()": {
						"details": "esta función debe sumar el valor transferiado a la cuenta del usuario a su balance actualesta función debe emitir un evento informando la transaccion "
					},
					"withdrawal(uint256)": {
						"details": "esta función debe restar el valor solicitado a la cuenta del usuario a su balance actualesta función debe emitir un evento informando la transaccion "
					}
				},
				"title": "Contrato KipuBank",
				"version": 1
			},
			"evm": {
				"assembly": "    /* \"contracts/KipuBank.sol\":1215:5317  contract KipuBank {... */\n  mstore(0x40, 0xa0)\n    /* \"contracts/KipuBank.sol\":2784:3046  constructor(uint256 capWei, uint256 maxTransactions) {... */\n  callvalue\n  dup1\n  iszero\n  tag_1\n  jumpi\n  revert(0x00, 0x00)\ntag_1:\n  pop\n  mload(0x40)\n  sub(codesize, bytecodeSize)\n  dup1\n  bytecodeSize\n  dup4\n  codecopy\n  dup2\n  dup2\n  add\n  0x40\n  mstore\n  dup2\n  add\n  swap1\n  tag_2\n  swap2\n  swap1\n  tag_3\n  jump\t// in\ntag_2:\n    /* \"contracts/KipuBank.sol\":2864:2865  0 */\n  0x00\n    /* \"contracts/KipuBank.sol\":2855:2861  capWei */\n  dup3\n    /* \"contracts/KipuBank.sol\":2855:2865  capWei > 0 */\n  gt\n    /* \"contracts/KipuBank.sol\":2847:2877  require(capWei > 0, \"cap = 0\") */\n  tag_6\n  jumpi\n  mload(0x40)\n  0x08c379a000000000000000000000000000000000000000000000000000000000\n  dup2\n  mstore\n  0x04\n  add\n  tag_7\n  swap1\n  tag_8\n  jump\t// in\ntag_7:\n  mload(0x40)\n  dup1\n  swap2\n  sub\n  swap1\n  revert\ntag_6:\n    /* \"contracts/KipuBank.sol\":2902:2908  capWei */\n  dup2\n    /* \"contracts/KipuBank.sol\":2887:2908  WITHDRAW_MAX = capWei */\n  0x80\n  dup2\n  dup2\n  mstore\n  pop\n  pop\n    /* \"contracts/KipuBank.sol\":2976:2977  0 */\n  0x00\n    /* \"contracts/KipuBank.sol\":2958:2973  maxTransactions */\n  dup2\n    /* \"contracts/KipuBank.sol\":2958:2977  maxTransactions > 0 */\n  gt\n    /* \"contracts/KipuBank.sol\":2950:3004  require(maxTransactions > 0, \"At least 1 transaction\") */\n  tag_9\n  jumpi\n  mload(0x40)\n  0x08c379a000000000000000000000000000000000000000000000000000000000\n  dup2\n  mstore\n  0x04\n  add\n  tag_10\n  swap1\n  tag_11\n  jump\t// in\ntag_10:\n  mload(0x40)\n  dup1\n  swap2\n  sub\n  swap1\n  revert\ntag_9:\n    /* \"contracts/KipuBank.sol\":3024:3039  maxTransactions */\n  dup1\n    /* \"contracts/KipuBank.sol\":3014:3021  bankCap */\n  0x01\n    /* \"contracts/KipuBank.sol\":3014:3039  bankCap = maxTransactions */\n  dup2\n  swap1\n  sstore\n  pop\n    /* \"contracts/KipuBank.sol\":2784:3046  constructor(uint256 capWei, uint256 maxTransactions) {... */\n  pop\n  pop\n    /* \"contracts/KipuBank.sol\":1215:5317  contract KipuBank {... */\n  jump(tag_12)\n    /* \"#utility.yul\":88:205   */\ntag_14:\n    /* \"#utility.yul\":197:198   */\n  0x00\n    /* \"#utility.yul\":194:195   */\n  0x00\n    /* \"#utility.yul\":187:199   */\n  revert\n    /* \"#utility.yul\":334:411   */\ntag_16:\n    /* \"#utility.yul\":371:378   */\n  0x00\n    /* \"#utility.yul\":400:405   */\n  dup2\n    /* \"#utility.yul\":389:405   */\n  swap1\n  pop\n    /* \"#utility.yul\":334:411   */\n  swap2\n  swap1\n  pop\n  jump\t// out\n    /* \"#utility.yul\":417:539   */\ntag_17:\n    /* \"#utility.yul\":490:514   */\n  tag_30\n    /* \"#utility.yul\":508:513   */\n  dup2\n    /* \"#utility.yul\":490:514   */\n  tag_16\n  jump\t// in\ntag_30:\n    /* \"#utility.yul\":483:488   */\n  dup2\n    /* \"#utility.yul\":480:515   */\n  eq\n    /* \"#utility.yul\":470:533   */\n  tag_31\n  jumpi\n    /* \"#utility.yul\":529:530   */\n  0x00\n    /* \"#utility.yul\":526:527   */\n  0x00\n    /* \"#utility.yul\":519:531   */\n  revert\n    /* \"#utility.yul\":470:533   */\ntag_31:\n    /* \"#utility.yul\":417:539   */\n  pop\n  jump\t// out\n    /* \"#utility.yul\":545:688   */\ntag_18:\n    /* \"#utility.yul\":602:607   */\n  0x00\n    /* \"#utility.yul\":633:639   */\n  dup2\n    /* \"#utility.yul\":627:640   */\n  mload\n    /* \"#utility.yul\":618:640   */\n  swap1\n  pop\n    /* \"#utility.yul\":649:682   */\n  tag_33\n    /* \"#utility.yul\":676:681   */\n  dup2\n    /* \"#utility.yul\":649:682   */\n  tag_17\n  jump\t// in\ntag_33:\n    /* \"#utility.yul\":545:688   */\n  swap3\n  swap2\n  pop\n  pop\n  jump\t// out\n    /* \"#utility.yul\":694:1201   */\ntag_3:\n    /* \"#utility.yul\":773:779   */\n  0x00\n    /* \"#utility.yul\":781:787   */\n  0x00\n    /* \"#utility.yul\":830:832   */\n  0x40\n    /* \"#utility.yul\":818:827   */\n  dup4\n    /* \"#utility.yul\":809:816   */\n  dup6\n    /* \"#utility.yul\":805:828   */\n  sub\n    /* \"#utility.yul\":801:833   */\n  slt\n    /* \"#utility.yul\":798:917   */\n  iszero\n  tag_35\n  jumpi\n    /* \"#utility.yul\":836:915   */\n  tag_36\n  tag_14\n  jump\t// in\ntag_36:\n    /* \"#utility.yul\":798:917   */\ntag_35:\n    /* \"#utility.yul\":956:957   */\n  0x00\n    /* \"#utility.yul\":981:1045   */\n  tag_37\n    /* \"#utility.yul\":1037:1044   */\n  dup6\n    /* \"#utility.yul\":1028:1034   */\n  dup3\n    /* \"#utility.yul\":1017:1026   */\n  dup7\n    /* \"#utility.yul\":1013:1035   */\n  add\n    /* \"#utility.yul\":981:1045   */\n  tag_18\n  jump\t// in\ntag_37:\n    /* \"#utility.yul\":971:1045   */\n  swap3\n  pop\n    /* \"#utility.yul\":927:1055   */\n  pop\n    /* \"#utility.yul\":1094:1096   */\n  0x20\n    /* \"#utility.yul\":1120:1184   */\n  tag_38\n    /* \"#utility.yul\":1176:1183   */\n  dup6\n    /* \"#utility.yul\":1167:1173   */\n  dup3\n    /* \"#utility.yul\":1156:1165   */\n  dup7\n    /* \"#utility.yul\":1152:1174   */\n  add\n    /* \"#utility.yul\":1120:1184   */\n  tag_18\n  jump\t// in\ntag_38:\n    /* \"#utility.yul\":1110:1184   */\n  swap2\n  pop\n    /* \"#utility.yul\":1065:1194   */\n  pop\n    /* \"#utility.yul\":694:1201   */\n  swap3\n  pop\n  swap3\n  swap1\n  pop\n  jump\t// out\n    /* \"#utility.yul\":1207:1376   */\ntag_19:\n    /* \"#utility.yul\":1291:1302   */\n  0x00\n    /* \"#utility.yul\":1325:1331   */\n  dup3\n    /* \"#utility.yul\":1320:1323   */\n  dup3\n    /* \"#utility.yul\":1313:1332   */\n  mstore\n    /* \"#utility.yul\":1365:1369   */\n  0x20\n    /* \"#utility.yul\":1360:1363   */\n  dup3\n    /* \"#utility.yul\":1356:1370   */\n  add\n    /* \"#utility.yul\":1341:1370   */\n  swap1\n  pop\n    /* \"#utility.yul\":1207:1376   */\n  swap3\n  swap2\n  pop\n  pop\n  jump\t// out\n    /* \"#utility.yul\":1382:1539   */\ntag_20:\n    /* \"#utility.yul\":1522:1531   */\n  0x636170203d203000000000000000000000000000000000000000000000000000\n    /* \"#utility.yul\":1518:1519   */\n  0x00\n    /* \"#utility.yul\":1510:1516   */\n  dup3\n    /* \"#utility.yul\":1506:1520   */\n  add\n    /* \"#utility.yul\":1499:1532   */\n  mstore\n    /* \"#utility.yul\":1382:1539   */\n  pop\n  jump\t// out\n    /* \"#utility.yul\":1545:1910   */\ntag_21:\n    /* \"#utility.yul\":1687:1690   */\n  0x00\n    /* \"#utility.yul\":1708:1774   */\n  tag_42\n    /* \"#utility.yul\":1772:1773   */\n  0x07\n    /* \"#utility.yul\":1767:1770   */\n  dup4\n    /* \"#utility.yul\":1708:1774   */\n  tag_19\n  jump\t// in\ntag_42:\n    /* \"#utility.yul\":1701:1774   */\n  swap2\n  pop\n    /* \"#utility.yul\":1783:1876   */\n  tag_43\n    /* \"#utility.yul\":1872:1875   */\n  dup3\n    /* \"#utility.yul\":1783:1876   */\n  tag_20\n  jump\t// in\ntag_43:\n    /* \"#utility.yul\":1901:1903   */\n  0x20\n    /* \"#utility.yul\":1896:1899   */\n  dup3\n    /* \"#utility.yul\":1892:1904   */\n  add\n    /* \"#utility.yul\":1885:1904   */\n  swap1\n  pop\n    /* \"#utility.yul\":1545:1910   */\n  swap2\n  swap1\n  pop\n  jump\t// out\n    /* \"#utility.yul\":1916:2335   */\ntag_8:\n    /* \"#utility.yul\":2082:2086   */\n  0x00\n    /* \"#utility.yul\":2120:2122   */\n  0x20\n    /* \"#utility.yul\":2109:2118   */\n  dup3\n    /* \"#utility.yul\":2105:2123   */\n  add\n    /* \"#utility.yul\":2097:2123   */\n  swap1\n  pop\n    /* \"#utility.yul\":2169:2178   */\n  dup2\n    /* \"#utility.yul\":2163:2167   */\n  dup2\n    /* \"#utility.yul\":2159:2179   */\n  sub\n    /* \"#utility.yul\":2155:2156   */\n  0x00\n    /* \"#utility.yul\":2144:2153   */\n  dup4\n    /* \"#utility.yul\":2140:2157   */\n  add\n    /* \"#utility.yul\":2133:2180   */\n  mstore\n    /* \"#utility.yul\":2197:2328   */\n  tag_45\n    /* \"#utility.yul\":2323:2327   */\n  dup2\n    /* \"#utility.yul\":2197:2328   */\n  tag_21\n  jump\t// in\ntag_45:\n    /* \"#utility.yul\":2189:2328   */\n  swap1\n  pop\n    /* \"#utility.yul\":1916:2335   */\n  swap2\n  swap1\n  pop\n  jump\t// out\n    /* \"#utility.yul\":2341:2513   */\ntag_22:\n    /* \"#utility.yul\":2481:2505   */\n  0x4174206c656173742031207472616e73616374696f6e00000000000000000000\n    /* \"#utility.yul\":2477:2478   */\n  0x00\n    /* \"#utility.yul\":2469:2475   */\n  dup3\n    /* \"#utility.yul\":2465:2479   */\n  add\n    /* \"#utility.yul\":2458:2506   */\n  mstore\n    /* \"#utility.yul\":2341:2513   */\n  pop\n  jump\t// out\n    /* \"#utility.yul\":2519:2885   */\ntag_23:\n    /* \"#utility.yul\":2661:2664   */\n  0x00\n    /* \"#utility.yul\":2682:2749   */\n  tag_48\n    /* \"#utility.yul\":2746:2748   */\n  0x16\n    /* \"#utility.yul\":2741:2744   */\n  dup4\n    /* \"#utility.yul\":2682:2749   */\n  tag_19\n  jump\t// in\ntag_48:\n    /* \"#utility.yul\":2675:2749   */\n  swap2\n  pop\n    /* \"#utility.yul\":2758:2851   */\n  tag_49\n    /* \"#utility.yul\":2847:2850   */\n  dup3\n    /* \"#utility.yul\":2758:2851   */\n  tag_22\n  jump\t// in\ntag_49:\n    /* \"#utility.yul\":2876:2878   */\n  0x20\n    /* \"#utility.yul\":2871:2874   */\n  dup3\n    /* \"#utility.yul\":2867:2879   */\n  add\n    /* \"#utility.yul\":2860:2879   */\n  swap1\n  pop\n    /* \"#utility.yul\":2519:2885   */\n  swap2\n  swap1\n  pop\n  jump\t// out\n    /* \"#utility.yul\":2891:3310   */\ntag_11:\n    /* \"#utility.yul\":3057:3061   */\n  0x00\n    /* \"#utility.yul\":3095:3097   */\n  0x20\n    /* \"#utility.yul\":3084:3093   */\n  dup3\n    /* \"#utility.yul\":3080:3098   */\n  add\n    /* \"#utility.yul\":3072:3098   */\n  swap1\n  pop\n    /* \"#utility.yul\":3144:3153   */\n  dup2\n    /* \"#utility.yul\":3138:3142   */\n  dup2\n    /* \"#utility.yul\":3134:3154   */\n  sub\n    /* \"#utility.yul\":3130:3131   */\n  0x00\n    /* \"#utility.yul\":3119:3128   */\n  dup4\n    /* \"#utility.yul\":3115:3132   */\n  add\n    /* \"#utility.yul\":3108:3155   */\n  mstore\n    /* \"#utility.yul\":3172:3303   */\n  tag_51\n    /* \"#utility.yul\":3298:3302   */\n  dup2\n    /* \"#utility.yul\":3172:3303   */\n  tag_23\n  jump\t// in\ntag_51:\n    /* \"#utility.yul\":3164:3303   */\n  swap1\n  pop\n    /* \"#utility.yul\":2891:3310   */\n  swap2\n  swap1\n  pop\n  jump\t// out\n    /* \"contracts/KipuBank.sol\":1215:5317  contract KipuBank {... */\ntag_12:\n  mload(0x80)\n  codecopy(0x00, dataOffset(sub_0), dataSize(sub_0))\n  0x00\n  assignImmutable(\"0x1a192fabce13988b84994d4296e6cdc418d55e2f1d7f942188d4040b94fc57ac\")\n  return(0x00, dataSize(sub_0))\nstop\n\nsub_0: assembly {\n        /* \"contracts/KipuBank.sol\":1215:5317  contract KipuBank {... */\n      mstore(0x40, 0x80)\n      jumpi(tag_1, lt(calldatasize, 0x04))\n      shr(0xe0, calldataload(0x00))\n      dup1\n      0xd0e30db0\n      gt\n      tag_10\n      jumpi\n      dup1\n      0xd0e30db0\n      eq\n      tag_6\n      jumpi\n      dup1\n      0xecbea24d\n      eq\n      tag_7\n      jumpi\n      dup1\n      0xed4125d0\n      eq\n      tag_8\n      jumpi\n      dup1\n      0xf893fdc0\n      eq\n      tag_9\n      jumpi\n      jump(tag_1)\n    tag_10:\n      dup1\n      0x20d786b5\n      eq\n      tag_2\n      jumpi\n      dup1\n      0x27e235e3\n      eq\n      tag_3\n      jumpi\n      dup1\n      0x835fc6ca\n      eq\n      tag_4\n      jumpi\n      dup1\n      0xcc9993f6\n      eq\n      tag_5\n      jumpi\n    tag_1:\n      revert(0x00, 0x00)\n        /* \"contracts/KipuBank.sol\":1735:1767  uint256 public withdrawalCounter */\n    tag_2:\n      callvalue\n      dup1\n      iszero\n      tag_11\n      jumpi\n      revert(0x00, 0x00)\n    tag_11:\n      pop\n      tag_12\n      tag_13\n      jump\t// in\n    tag_12:\n      mload(0x40)\n      tag_14\n      swap2\n      swap1\n      tag_15\n      jump\t// in\n    tag_14:\n      mload(0x40)\n      dup1\n      swap2\n      sub\n      swap1\n      return\n        /* \"contracts/KipuBank.sol\":1370:1427  mapping(address client => uint256 amount) public balances */\n    tag_3:\n      callvalue\n      dup1\n      iszero\n      tag_16\n      jumpi\n      revert(0x00, 0x00)\n    tag_16:\n      pop\n      tag_17\n      0x04\n      dup1\n      calldatasize\n      sub\n      dup2\n      add\n      swap1\n      tag_18\n      swap2\n      swap1\n      tag_19\n      jump\t// in\n    tag_18:\n      tag_20\n      jump\t// in\n    tag_17:\n      mload(0x40)\n      tag_21\n      swap2\n      swap1\n      tag_15\n      jump\t// in\n    tag_21:\n      mload(0x40)\n      dup1\n      swap2\n      sub\n      swap1\n      return\n        /* \"contracts/KipuBank.sol\":3759:4183  function withdrawal(uint256 value) external payable {... */\n    tag_4:\n      tag_22\n      0x04\n      dup1\n      calldatasize\n      sub\n      dup2\n      add\n      swap1\n      tag_23\n      swap2\n      swap1\n      tag_24\n      jump\t// in\n    tag_23:\n      tag_25\n      jump\t// in\n    tag_22:\n      stop\n        /* \"contracts/KipuBank.sol\":1495:1532  uint256 public immutable WITHDRAW_MAX */\n    tag_5:\n      callvalue\n      dup1\n      iszero\n      tag_26\n      jumpi\n      revert(0x00, 0x00)\n    tag_26:\n      pop\n      tag_27\n      tag_28\n      jump\t// in\n    tag_27:\n      mload(0x40)\n      tag_29\n      swap2\n      swap1\n      tag_15\n      jump\t// in\n    tag_29:\n      mload(0x40)\n      dup1\n      swap2\n      sub\n      swap1\n      return\n        /* \"contracts/KipuBank.sol\":3271:3540  function deposit() external payable {... */\n    tag_6:\n      tag_30\n      tag_31\n      jump\t// in\n    tag_30:\n      stop\n        /* \"contracts/KipuBank.sol\":1586:1608  uint256 public bankCap */\n    tag_7:\n      callvalue\n      dup1\n      iszero\n      tag_32\n      jumpi\n      revert(0x00, 0x00)\n    tag_32:\n      pop\n      tag_33\n      tag_34\n      jump\t// in\n    tag_33:\n      mload(0x40)\n      tag_35\n      swap2\n      swap1\n      tag_15\n      jump\t// in\n    tag_35:\n      mload(0x40)\n      dup1\n      swap2\n      sub\n      swap1\n      return\n        /* \"contracts/KipuBank.sol\":1655:1689  uint256 public transactionsCounter */\n    tag_8:\n      callvalue\n      dup1\n      iszero\n      tag_36\n      jumpi\n      revert(0x00, 0x00)\n    tag_36:\n      pop\n      tag_37\n      tag_38\n      jump\t// in\n    tag_37:\n      mload(0x40)\n      tag_39\n      swap2\n      swap1\n      tag_15\n      jump\t// in\n    tag_39:\n      mload(0x40)\n      dup1\n      swap2\n      sub\n      swap1\n      return\n        /* \"contracts/KipuBank.sol\":4320:4518  function bankStats()external view returns ( uint256 totalDeposits, uint256 totalwithdrawal) {... */\n    tag_9:\n      callvalue\n      dup1\n      iszero\n      tag_40\n      jumpi\n      revert(0x00, 0x00)\n    tag_40:\n      pop\n      tag_41\n      tag_42\n      jump\t// in\n    tag_41:\n      mload(0x40)\n      tag_43\n      swap3\n      swap2\n      swap1\n      tag_44\n      jump\t// in\n    tag_43:\n      mload(0x40)\n      dup1\n      swap2\n      sub\n      swap1\n      return\n        /* \"contracts/KipuBank.sol\":1735:1767  uint256 public withdrawalCounter */\n    tag_13:\n      sload(0x03)\n      dup2\n      jump\t// out\n        /* \"contracts/KipuBank.sol\":1370:1427  mapping(address client => uint256 amount) public balances */\n    tag_20:\n      mstore(0x20, 0x00)\n      dup1\n      0x00\n      mstore\n      keccak256(0x00, 0x40)\n      0x00\n      swap2\n      pop\n      swap1\n      pop\n      sload\n      dup2\n      jump\t// out\n        /* \"contracts/KipuBank.sol\":3759:4183  function withdrawal(uint256 value) external payable {... */\n    tag_25:\n        /* \"contracts/KipuBank.sol\":3821:3887  _withdrawlRequierements(value, WITHDRAW_MAX, balances[msg.sender]) */\n      tag_46\n        /* \"contracts/KipuBank.sol\":3845:3850  value */\n      dup2\n        /* \"contracts/KipuBank.sol\":3852:3864  WITHDRAW_MAX */\n      immutable(\"0x1a192fabce13988b84994d4296e6cdc418d55e2f1d7f942188d4040b94fc57ac\")\n        /* \"contracts/KipuBank.sol\":3866:3874  balances */\n      0x00\n        /* \"contracts/KipuBank.sol\":3866:3886  balances[msg.sender] */\n      0x00\n        /* \"contracts/KipuBank.sol\":3875:3885  msg.sender */\n      caller\n        /* \"contracts/KipuBank.sol\":3866:3886  balances[msg.sender] */\n      0xffffffffffffffffffffffffffffffffffffffff\n      and\n      0xffffffffffffffffffffffffffffffffffffffff\n      and\n      dup2\n      mstore\n      0x20\n      add\n      swap1\n      dup2\n      mstore\n      0x20\n      add\n      0x00\n      keccak256\n      sload\n        /* \"contracts/KipuBank.sol\":3821:3844  _withdrawlRequierements */\n      tag_47\n        /* \"contracts/KipuBank.sol\":3821:3887  _withdrawlRequierements(value, WITHDRAW_MAX, balances[msg.sender]) */\n      jump\t// in\n    tag_46:\n        /* \"contracts/KipuBank.sol\":3944:3949  value */\n      dup1\n        /* \"contracts/KipuBank.sol\":3921:3929  balances */\n      0x00\n        /* \"contracts/KipuBank.sol\":3921:3941  balances[msg.sender] */\n      0x00\n        /* \"contracts/KipuBank.sol\":3930:3940  msg.sender */\n      caller\n        /* \"contracts/KipuBank.sol\":3921:3941  balances[msg.sender] */\n      0xffffffffffffffffffffffffffffffffffffffff\n      and\n      0xffffffffffffffffffffffffffffffffffffffff\n      and\n      dup2\n      mstore\n      0x20\n      add\n      swap1\n      dup2\n      mstore\n      0x20\n      add\n      0x00\n      keccak256\n      sload\n        /* \"contracts/KipuBank.sol\":3921:3949  balances[msg.sender] - value */\n      tag_48\n      swap2\n      swap1\n      tag_49\n      jump\t// in\n    tag_48:\n        /* \"contracts/KipuBank.sol\":3898:3906  balances */\n      0x00\n        /* \"contracts/KipuBank.sol\":3898:3918  balances[msg.sender] */\n      0x00\n        /* \"contracts/KipuBank.sol\":3907:3917  msg.sender */\n      caller\n        /* \"contracts/KipuBank.sol\":3898:3918  balances[msg.sender] */\n      0xffffffffffffffffffffffffffffffffffffffff\n      and\n      0xffffffffffffffffffffffffffffffffffffffff\n      and\n      dup2\n      mstore\n      0x20\n      add\n      swap1\n      dup2\n      mstore\n      0x20\n      add\n      0x00\n      keccak256\n        /* \"contracts/KipuBank.sol\":3898:3949  balances[msg.sender] = balances[msg.sender] - value */\n      dup2\n      swap1\n      sstore\n      pop\n        /* \"contracts/KipuBank.sol\":3960:3967  bool ok */\n      0x00\n        /* \"contracts/KipuBank.sol\":3973:3983  msg.sender */\n      caller\n        /* \"contracts/KipuBank.sol\":3973:3988  msg.sender.call */\n      0xffffffffffffffffffffffffffffffffffffffff\n      and\n        /* \"contracts/KipuBank.sol\":3996:4001  value */\n      dup3\n        /* \"contracts/KipuBank.sol\":3973:4006  msg.sender.call{value: value}(\"\") */\n      mload(0x40)\n      tag_50\n      swap1\n      tag_51\n      jump\t// in\n    tag_50:\n      0x00\n      mload(0x40)\n      dup1\n      dup4\n      sub\n      dup2\n      dup6\n      dup8\n      gas\n      call\n      swap3\n      pop\n      pop\n      pop\n      returndatasize\n      dup1\n      0x00\n      dup2\n      eq\n      tag_54\n      jumpi\n      mload(0x40)\n      swap2\n      pop\n      and(add(returndatasize, 0x3f), not(0x1f))\n      dup3\n      add\n      0x40\n      mstore\n      returndatasize\n      dup3\n      mstore\n      returndatasize\n      0x00\n      0x20\n      dup5\n      add\n      returndatacopy\n      jump(tag_53)\n    tag_54:\n      0x60\n      swap2\n      pop\n    tag_53:\n      pop\n        /* \"contracts/KipuBank.sol\":3959:4006  (bool ok, ) = msg.sender.call{value: value}(\"\") */\n      pop\n      swap1\n      pop\n        /* \"contracts/KipuBank.sol\":4020:4022  ok */\n      dup1\n        /* \"contracts/KipuBank.sol\":4016:4049  if(!ok)revert transactionFailed() */\n      tag_55\n      jumpi\n        /* \"contracts/KipuBank.sol\":4030:4049  transactionFailed() */\n      mload(0x40)\n      0xdccf81a900000000000000000000000000000000000000000000000000000000\n      dup2\n      mstore\n      0x04\n      add\n      mload(0x40)\n      dup1\n      swap2\n      sub\n      swap1\n      revert\n        /* \"contracts/KipuBank.sol\":4016:4049  if(!ok)revert transactionFailed() */\n    tag_55:\n        /* \"contracts/KipuBank.sol\":4118:4119  1 */\n      0x01\n        /* \"contracts/KipuBank.sol\":4098:4115  withdrawalCounter */\n      sload(0x03)\n        /* \"contracts/KipuBank.sol\":4098:4119  withdrawalCounter + 1 */\n      add\n        /* \"contracts/KipuBank.sol\":4078:4095  withdrawalCounter */\n      0x03\n        /* \"contracts/KipuBank.sol\":4078:4119  withdrawalCounter = withdrawalCounter + 1 */\n      dup2\n      swap1\n      sstore\n      pop\n        /* \"contracts/KipuBank.sol\":4144:4176  withdrawalDone(msg.sender,value) */\n      0x259ba9bd5e499315c8db581725868b54b1aa9905f229201d647d2f023875b671\n        /* \"contracts/KipuBank.sol\":4159:4169  msg.sender */\n      caller\n        /* \"contracts/KipuBank.sol\":4170:4175  value */\n      dup4\n        /* \"contracts/KipuBank.sol\":4144:4176  withdrawalDone(msg.sender,value) */\n      mload(0x40)\n      tag_56\n      swap3\n      swap2\n      swap1\n      tag_57\n      jump\t// in\n    tag_56:\n      mload(0x40)\n      dup1\n      swap2\n      sub\n      swap1\n      log1\n        /* \"contracts/KipuBank.sol\":3811:4183  {... */\n      pop\n        /* \"contracts/KipuBank.sol\":3759:4183  function withdrawal(uint256 value) external payable {... */\n      pop\n      jump\t// out\n        /* \"contracts/KipuBank.sol\":1495:1532  uint256 public immutable WITHDRAW_MAX */\n    tag_28:\n      immutable(\"0x1a192fabce13988b84994d4296e6cdc418d55e2f1d7f942188d4040b94fc57ac\")\n      dup2\n      jump\t// out\n        /* \"contracts/KipuBank.sol\":3271:3540  function deposit() external payable {... */\n    tag_31:\n        /* \"contracts/KipuBank.sol\":3317:3349  _depostiRequierements(msg.value) */\n      tag_59\n        /* \"contracts/KipuBank.sol\":3339:3348  msg.value */\n      callvalue\n        /* \"contracts/KipuBank.sol\":3317:3338  _depostiRequierements */\n      tag_60\n        /* \"contracts/KipuBank.sol\":3317:3349  _depostiRequierements(msg.value) */\n      jump\t// in\n    tag_59:\n        /* \"contracts/KipuBank.sol\":3400:3409  msg.value */\n      callvalue\n        /* \"contracts/KipuBank.sol\":3376:3384  balances */\n      0x00\n        /* \"contracts/KipuBank.sol\":3376:3396  balances[msg.sender] */\n      0x00\n        /* \"contracts/KipuBank.sol\":3385:3395  msg.sender */\n      caller\n        /* \"contracts/KipuBank.sol\":3376:3396  balances[msg.sender] */\n      0xffffffffffffffffffffffffffffffffffffffff\n      and\n      0xffffffffffffffffffffffffffffffffffffffff\n      and\n      dup2\n      mstore\n      0x20\n      add\n      swap1\n      dup2\n      mstore\n      0x20\n      add\n      0x00\n      keccak256\n      0x00\n        /* \"contracts/KipuBank.sol\":3376:3409  balances[msg.sender] += msg.value */\n      dup3\n      dup3\n      sload\n      tag_61\n      swap2\n      swap1\n      tag_62\n      jump\t// in\n    tag_61:\n      swap3\n      pop\n      pop\n      dup2\n      swap1\n      sstore\n        /* \"contracts/KipuBank.sol\":3353:3361  balances */\n      0x00\n        /* \"contracts/KipuBank.sol\":3353:3373  balances[msg.sender] */\n      0x00\n        /* \"contracts/KipuBank.sol\":3362:3372  msg.sender */\n      caller\n        /* \"contracts/KipuBank.sol\":3353:3373  balances[msg.sender] */\n      0xffffffffffffffffffffffffffffffffffffffff\n      and\n      0xffffffffffffffffffffffffffffffffffffffff\n      and\n      dup2\n      mstore\n      0x20\n      add\n      swap1\n      dup2\n      mstore\n      0x20\n      add\n      0x00\n      keccak256\n        /* \"contracts/KipuBank.sol\":3353:3409  balances[msg.sender] = balances[msg.sender] += msg.value */\n      dup2\n      swap1\n      sstore\n      pop\n        /* \"contracts/KipuBank.sol\":3482:3483  1 */\n      0x01\n        /* \"contracts/KipuBank.sol\":3460:3479  transactionsCounter */\n      sload(0x02)\n        /* \"contracts/KipuBank.sol\":3460:3483  transactionsCounter + 1 */\n      add\n        /* \"contracts/KipuBank.sol\":3438:3457  transactionsCounter */\n      0x02\n        /* \"contracts/KipuBank.sol\":3438:3483  transactionsCounter = transactionsCounter + 1 */\n      dup2\n      swap1\n      sstore\n      pop\n        /* \"contracts/KipuBank.sol\":3502:3536  depositDone(msg.sender, msg.value) */\n      0x697d5fef1116e2cfe67456163e0bd4f57ab5fd87dcc703a1ce355d1cb1c635bd\n        /* \"contracts/KipuBank.sol\":3514:3524  msg.sender */\n      caller\n        /* \"contracts/KipuBank.sol\":3526:3535  msg.value */\n      callvalue\n        /* \"contracts/KipuBank.sol\":3502:3536  depositDone(msg.sender, msg.value) */\n      mload(0x40)\n      tag_63\n      swap3\n      swap2\n      swap1\n      tag_57\n      jump\t// in\n    tag_63:\n      mload(0x40)\n      dup1\n      swap2\n      sub\n      swap1\n      log1\n        /* \"contracts/KipuBank.sol\":3271:3540  function deposit() external payable {... */\n      jump\t// out\n        /* \"contracts/KipuBank.sol\":1586:1608  uint256 public bankCap */\n    tag_34:\n      sload(0x01)\n      dup2\n      jump\t// out\n        /* \"contracts/KipuBank.sol\":1655:1689  uint256 public transactionsCounter */\n    tag_38:\n      sload(0x02)\n      dup2\n      jump\t// out\n        /* \"contracts/KipuBank.sol\":4320:4518  function bankStats()external view returns ( uint256 totalDeposits, uint256 totalwithdrawal) {... */\n    tag_42:\n        /* \"contracts/KipuBank.sol\":4364:4385  uint256 totalDeposits */\n      0x00\n        /* \"contracts/KipuBank.sol\":4387:4410  uint256 totalwithdrawal */\n      0x00\n        /* \"contracts/KipuBank.sol\":4447:4466  transactionsCounter */\n      sload(0x02)\n        /* \"contracts/KipuBank.sol\":4431:4466  totalDeposits = transactionsCounter */\n      swap2\n      pop\n        /* \"contracts/KipuBank.sol\":4494:4511  withdrawalCounter */\n      sload(0x03)\n        /* \"contracts/KipuBank.sol\":4476:4511  totalwithdrawal = withdrawalCounter */\n      swap1\n      pop\n        /* \"contracts/KipuBank.sol\":4320:4518  function bankStats()external view returns ( uint256 totalDeposits, uint256 totalwithdrawal) {... */\n      swap1\n      swap2\n      jump\t// out\n        /* \"contracts/KipuBank.sol\":5087:5315  function _withdrawlRequierements(uint256 value, uint256 cap, uint256 balance) private pure {... */\n    tag_47:\n        /* \"contracts/KipuBank.sol\":5200:5203  cap */\n      dup2\n        /* \"contracts/KipuBank.sol\":5192:5197  value */\n      dup4\n        /* \"contracts/KipuBank.sol\":5192:5203  value > cap */\n      gt\n        /* \"contracts/KipuBank.sol\":5188:5235  if (value > cap) revert capExceeded(value, cap) */\n      iszero\n      tag_66\n      jumpi\n        /* \"contracts/KipuBank.sol\":5224:5229  value */\n      dup3\n        /* \"contracts/KipuBank.sol\":5231:5234  cap */\n      dup3\n        /* \"contracts/KipuBank.sol\":5212:5235  capExceeded(value, cap) */\n      mload(0x40)\n      0xa5d46ef200000000000000000000000000000000000000000000000000000000\n      dup2\n      mstore\n      0x04\n      add\n      tag_67\n      swap3\n      swap2\n      swap1\n      tag_44\n      jump\t// in\n    tag_67:\n      mload(0x40)\n      dup1\n      swap2\n      sub\n      swap1\n      revert\n        /* \"contracts/KipuBank.sol\":5188:5235  if (value > cap) revert capExceeded(value, cap) */\n    tag_66:\n        /* \"contracts/KipuBank.sol\":5257:5264  balance */\n      dup1\n        /* \"contracts/KipuBank.sol\":5249:5254  value */\n      dup4\n        /* \"contracts/KipuBank.sol\":5249:5264  value > balance */\n      gt\n        /* \"contracts/KipuBank.sol\":5245:5308  if (value > balance) revert insufficientBalance(balance, value) */\n      iszero\n      tag_68\n      jumpi\n        /* \"contracts/KipuBank.sol\":5293:5300  balance */\n      dup1\n        /* \"contracts/KipuBank.sol\":5302:5307  value */\n      dup4\n        /* \"contracts/KipuBank.sol\":5273:5308  insufficientBalance(balance, value) */\n      mload(0x40)\n      0xc7a28c7900000000000000000000000000000000000000000000000000000000\n      dup2\n      mstore\n      0x04\n      add\n      tag_69\n      swap3\n      swap2\n      swap1\n      tag_44\n      jump\t// in\n    tag_69:\n      mload(0x40)\n      dup1\n      swap2\n      sub\n      swap1\n      revert\n        /* \"contracts/KipuBank.sol\":5245:5308  if (value > balance) revert insufficientBalance(balance, value) */\n    tag_68:\n        /* \"contracts/KipuBank.sol\":5087:5315  function _withdrawlRequierements(uint256 value, uint256 cap, uint256 balance) private pure {... */\n      pop\n      pop\n      pop\n      jump\t// out\n        /* \"contracts/KipuBank.sol\":4717:4923  function _depostiRequierements(uint256 value) private view {... */\n    tag_60:\n        /* \"contracts/KipuBank.sol\":4799:4800  0 */\n      0x00\n        /* \"contracts/KipuBank.sol\":4790:4795  value */\n      dup2\n        /* \"contracts/KipuBank.sol\":4790:4800  value == 0 */\n      sub\n        /* \"contracts/KipuBank.sol\":4786:4822  if (value == 0) revert zeroDeposit() */\n      tag_71\n      jumpi\n        /* \"contracts/KipuBank.sol\":4809:4822  zeroDeposit() */\n      mload(0x40)\n      0x09224e7f00000000000000000000000000000000000000000000000000000000\n      dup2\n      mstore\n      0x04\n      add\n      mload(0x40)\n      dup1\n      swap2\n      sub\n      swap1\n      revert\n        /* \"contracts/KipuBank.sol\":4786:4822  if (value == 0) revert zeroDeposit() */\n    tag_71:\n        /* \"contracts/KipuBank.sol\":4859:4866  bankCap */\n      sload(0x01)\n        /* \"contracts/KipuBank.sol\":4836:4855  transactionsCounter */\n      sload(0x02)\n        /* \"contracts/KipuBank.sol\":4836:4866  transactionsCounter >= bankCap */\n      lt\n        /* \"contracts/KipuBank.sol\":4832:4916  if (transactionsCounter >= bankCap) revert capExceeded(transactionsCounter, bankCap) */\n      tag_72\n      jumpi\n        /* \"contracts/KipuBank.sol\":4887:4906  transactionsCounter */\n      sload(0x02)\n        /* \"contracts/KipuBank.sol\":4908:4915  bankCap */\n      sload(0x01)\n        /* \"contracts/KipuBank.sol\":4875:4916  capExceeded(transactionsCounter, bankCap) */\n      mload(0x40)\n      0xa5d46ef200000000000000000000000000000000000000000000000000000000\n      dup2\n      mstore\n      0x04\n      add\n      tag_73\n      swap3\n      swap2\n      swap1\n      tag_44\n      jump\t// in\n    tag_73:\n      mload(0x40)\n      dup1\n      swap2\n      sub\n      swap1\n      revert\n        /* \"contracts/KipuBank.sol\":4832:4916  if (transactionsCounter >= bankCap) revert capExceeded(transactionsCounter, bankCap) */\n    tag_72:\n        /* \"contracts/KipuBank.sol\":4717:4923  function _depostiRequierements(uint256 value) private view {... */\n      pop\n      jump\t// out\n        /* \"#utility.yul\":7:84   */\n    tag_74:\n        /* \"#utility.yul\":44:51   */\n      0x00\n        /* \"#utility.yul\":73:78   */\n      dup2\n        /* \"#utility.yul\":62:78   */\n      swap1\n      pop\n        /* \"#utility.yul\":7:84   */\n      swap2\n      swap1\n      pop\n      jump\t// out\n        /* \"#utility.yul\":90:208   */\n    tag_75:\n        /* \"#utility.yul\":177:201   */\n      tag_93\n        /* \"#utility.yul\":195:200   */\n      dup2\n        /* \"#utility.yul\":177:201   */\n      tag_74\n      jump\t// in\n    tag_93:\n        /* \"#utility.yul\":172:175   */\n      dup3\n        /* \"#utility.yul\":165:202   */\n      mstore\n        /* \"#utility.yul\":90:208   */\n      pop\n      pop\n      jump\t// out\n        /* \"#utility.yul\":214:436   */\n    tag_15:\n        /* \"#utility.yul\":307:311   */\n      0x00\n        /* \"#utility.yul\":345:347   */\n      0x20\n        /* \"#utility.yul\":334:343   */\n      dup3\n        /* \"#utility.yul\":330:348   */\n      add\n        /* \"#utility.yul\":322:348   */\n      swap1\n      pop\n        /* \"#utility.yul\":358:429   */\n      tag_95\n        /* \"#utility.yul\":426:427   */\n      0x00\n        /* \"#utility.yul\":415:424   */\n      dup4\n        /* \"#utility.yul\":411:428   */\n      add\n        /* \"#utility.yul\":402:408   */\n      dup5\n        /* \"#utility.yul\":358:429   */\n      tag_75\n      jump\t// in\n    tag_95:\n        /* \"#utility.yul\":214:436   */\n      swap3\n      swap2\n      pop\n      pop\n      jump\t// out\n        /* \"#utility.yul\":523:640   */\n    tag_77:\n        /* \"#utility.yul\":632:633   */\n      0x00\n        /* \"#utility.yul\":629:630   */\n      0x00\n        /* \"#utility.yul\":622:634   */\n      revert\n        /* \"#utility.yul\":769:895   */\n    tag_79:\n        /* \"#utility.yul\":806:813   */\n      0x00\n        /* \"#utility.yul\":846:888   */\n      0xffffffffffffffffffffffffffffffffffffffff\n        /* \"#utility.yul\":839:844   */\n      dup3\n        /* \"#utility.yul\":835:889   */\n      and\n        /* \"#utility.yul\":824:889   */\n      swap1\n      pop\n        /* \"#utility.yul\":769:895   */\n      swap2\n      swap1\n      pop\n      jump\t// out\n        /* \"#utility.yul\":901:997   */\n    tag_80:\n        /* \"#utility.yul\":938:945   */\n      0x00\n        /* \"#utility.yul\":967:991   */\n      tag_101\n        /* \"#utility.yul\":985:990   */\n      dup3\n        /* \"#utility.yul\":967:991   */\n      tag_79\n      jump\t// in\n    tag_101:\n        /* \"#utility.yul\":956:991   */\n      swap1\n      pop\n        /* \"#utility.yul\":901:997   */\n      swap2\n      swap1\n      pop\n      jump\t// out\n        /* \"#utility.yul\":1003:1125   */\n    tag_81:\n        /* \"#utility.yul\":1076:1100   */\n      tag_103\n        /* \"#utility.yul\":1094:1099   */\n      dup2\n        /* \"#utility.yul\":1076:1100   */\n      tag_80\n      jump\t// in\n    tag_103:\n        /* \"#utility.yul\":1069:1074   */\n      dup2\n        /* \"#utility.yul\":1066:1101   */\n      eq\n        /* \"#utility.yul\":1056:1119   */\n      tag_104\n      jumpi\n        /* \"#utility.yul\":1115:1116   */\n      0x00\n        /* \"#utility.yul\":1112:1113   */\n      0x00\n        /* \"#utility.yul\":1105:1117   */\n      revert\n        /* \"#utility.yul\":1056:1119   */\n    tag_104:\n        /* \"#utility.yul\":1003:1125   */\n      pop\n      jump\t// out\n        /* \"#utility.yul\":1131:1270   */\n    tag_82:\n        /* \"#utility.yul\":1177:1182   */\n      0x00\n        /* \"#utility.yul\":1215:1221   */\n      dup2\n        /* \"#utility.yul\":1202:1222   */\n      calldataload\n        /* \"#utility.yul\":1193:1222   */\n      swap1\n      pop\n        /* \"#utility.yul\":1231:1264   */\n      tag_106\n        /* \"#utility.yul\":1258:1263   */\n      dup2\n        /* \"#utility.yul\":1231:1264   */\n      tag_81\n      jump\t// in\n    tag_106:\n        /* \"#utility.yul\":1131:1270   */\n      swap3\n      swap2\n      pop\n      pop\n      jump\t// out\n        /* \"#utility.yul\":1276:1605   */\n    tag_19:\n        /* \"#utility.yul\":1335:1341   */\n      0x00\n        /* \"#utility.yul\":1384:1386   */\n      0x20\n        /* \"#utility.yul\":1372:1381   */\n      dup3\n        /* \"#utility.yul\":1363:1370   */\n      dup5\n        /* \"#utility.yul\":1359:1382   */\n      sub\n        /* \"#utility.yul\":1355:1387   */\n      slt\n        /* \"#utility.yul\":1352:1471   */\n      iszero\n      tag_108\n      jumpi\n        /* \"#utility.yul\":1390:1469   */\n      tag_109\n      tag_77\n      jump\t// in\n    tag_109:\n        /* \"#utility.yul\":1352:1471   */\n    tag_108:\n        /* \"#utility.yul\":1510:1511   */\n      0x00\n        /* \"#utility.yul\":1535:1588   */\n      tag_110\n        /* \"#utility.yul\":1580:1587   */\n      dup5\n        /* \"#utility.yul\":1571:1577   */\n      dup3\n        /* \"#utility.yul\":1560:1569   */\n      dup6\n        /* \"#utility.yul\":1556:1578   */\n      add\n        /* \"#utility.yul\":1535:1588   */\n      tag_82\n      jump\t// in\n    tag_110:\n        /* \"#utility.yul\":1525:1588   */\n      swap2\n      pop\n        /* \"#utility.yul\":1481:1598   */\n      pop\n        /* \"#utility.yul\":1276:1605   */\n      swap3\n      swap2\n      pop\n      pop\n      jump\t// out\n        /* \"#utility.yul\":1611:1733   */\n    tag_83:\n        /* \"#utility.yul\":1684:1708   */\n      tag_112\n        /* \"#utility.yul\":1702:1707   */\n      dup2\n        /* \"#utility.yul\":1684:1708   */\n      tag_74\n      jump\t// in\n    tag_112:\n        /* \"#utility.yul\":1677:1682   */\n      dup2\n        /* \"#utility.yul\":1674:1709   */\n      eq\n        /* \"#utility.yul\":1664:1727   */\n      tag_113\n      jumpi\n        /* \"#utility.yul\":1723:1724   */\n      0x00\n        /* \"#utility.yul\":1720:1721   */\n      0x00\n        /* \"#utility.yul\":1713:1725   */\n      revert\n        /* \"#utility.yul\":1664:1727   */\n    tag_113:\n        /* \"#utility.yul\":1611:1733   */\n      pop\n      jump\t// out\n        /* \"#utility.yul\":1739:1878   */\n    tag_84:\n        /* \"#utility.yul\":1785:1790   */\n      0x00\n        /* \"#utility.yul\":1823:1829   */\n      dup2\n        /* \"#utility.yul\":1810:1830   */\n      calldataload\n        /* \"#utility.yul\":1801:1830   */\n      swap1\n      pop\n        /* \"#utility.yul\":1839:1872   */\n      tag_115\n        /* \"#utility.yul\":1866:1871   */\n      dup2\n        /* \"#utility.yul\":1839:1872   */\n      tag_83\n      jump\t// in\n    tag_115:\n        /* \"#utility.yul\":1739:1878   */\n      swap3\n      swap2\n      pop\n      pop\n      jump\t// out\n        /* \"#utility.yul\":1884:2213   */\n    tag_24:\n        /* \"#utility.yul\":1943:1949   */\n      0x00\n        /* \"#utility.yul\":1992:1994   */\n      0x20\n        /* \"#utility.yul\":1980:1989   */\n      dup3\n        /* \"#utility.yul\":1971:1978   */\n      dup5\n        /* \"#utility.yul\":1967:1990   */\n      sub\n        /* \"#utility.yul\":1963:1995   */\n      slt\n        /* \"#utility.yul\":1960:2079   */\n      iszero\n      tag_117\n      jumpi\n        /* \"#utility.yul\":1998:2077   */\n      tag_118\n      tag_77\n      jump\t// in\n    tag_118:\n        /* \"#utility.yul\":1960:2079   */\n    tag_117:\n        /* \"#utility.yul\":2118:2119   */\n      0x00\n        /* \"#utility.yul\":2143:2196   */\n      tag_119\n        /* \"#utility.yul\":2188:2195   */\n      dup5\n        /* \"#utility.yul\":2179:2185   */\n      dup3\n        /* \"#utility.yul\":2168:2177   */\n      dup6\n        /* \"#utility.yul\":2164:2186   */\n      add\n        /* \"#utility.yul\":2143:2196   */\n      tag_84\n      jump\t// in\n    tag_119:\n        /* \"#utility.yul\":2133:2196   */\n      swap2\n      pop\n        /* \"#utility.yul\":2089:2206   */\n      pop\n        /* \"#utility.yul\":1884:2213   */\n      swap3\n      swap2\n      pop\n      pop\n      jump\t// out\n        /* \"#utility.yul\":2219:2551   */\n    tag_44:\n        /* \"#utility.yul\":2340:2344   */\n      0x00\n        /* \"#utility.yul\":2378:2380   */\n      0x40\n        /* \"#utility.yul\":2367:2376   */\n      dup3\n        /* \"#utility.yul\":2363:2381   */\n      add\n        /* \"#utility.yul\":2355:2381   */\n      swap1\n      pop\n        /* \"#utility.yul\":2391:2462   */\n      tag_121\n        /* \"#utility.yul\":2459:2460   */\n      0x00\n        /* \"#utility.yul\":2448:2457   */\n      dup4\n        /* \"#utility.yul\":2444:2461   */\n      add\n        /* \"#utility.yul\":2435:2441   */\n      dup6\n        /* \"#utility.yul\":2391:2462   */\n      tag_75\n      jump\t// in\n    tag_121:\n        /* \"#utility.yul\":2472:2544   */\n      tag_122\n        /* \"#utility.yul\":2540:2542   */\n      0x20\n        /* \"#utility.yul\":2529:2538   */\n      dup4\n        /* \"#utility.yul\":2525:2543   */\n      add\n        /* \"#utility.yul\":2516:2522   */\n      dup5\n        /* \"#utility.yul\":2472:2544   */\n      tag_75\n      jump\t// in\n    tag_122:\n        /* \"#utility.yul\":2219:2551   */\n      swap4\n      swap3\n      pop\n      pop\n      pop\n      jump\t// out\n        /* \"#utility.yul\":2557:2737   */\n    tag_85:\n        /* \"#utility.yul\":2605:2682   */\n      0x4e487b7100000000000000000000000000000000000000000000000000000000\n        /* \"#utility.yul\":2602:2603   */\n      0x00\n        /* \"#utility.yul\":2595:2683   */\n      mstore\n        /* \"#utility.yul\":2702:2706   */\n      0x11\n        /* \"#utility.yul\":2699:2700   */\n      0x04\n        /* \"#utility.yul\":2692:2707   */\n      mstore\n        /* \"#utility.yul\":2726:2730   */\n      0x24\n        /* \"#utility.yul\":2723:2724   */\n      0x00\n        /* \"#utility.yul\":2716:2731   */\n      revert\n        /* \"#utility.yul\":2743:2937   */\n    tag_49:\n        /* \"#utility.yul\":2783:2787   */\n      0x00\n        /* \"#utility.yul\":2803:2823   */\n      tag_125\n        /* \"#utility.yul\":2821:2822   */\n      dup3\n        /* \"#utility.yul\":2803:2823   */\n      tag_74\n      jump\t// in\n    tag_125:\n        /* \"#utility.yul\":2798:2823   */\n      swap2\n      pop\n        /* \"#utility.yul\":2837:2857   */\n      tag_126\n        /* \"#utility.yul\":2855:2856   */\n      dup4\n        /* \"#utility.yul\":2837:2857   */\n      tag_74\n      jump\t// in\n    tag_126:\n        /* \"#utility.yul\":2832:2857   */\n      swap3\n      pop\n        /* \"#utility.yul\":2881:2882   */\n      dup3\n        /* \"#utility.yul\":2878:2879   */\n      dup3\n        /* \"#utility.yul\":2874:2883   */\n      sub\n        /* \"#utility.yul\":2866:2883   */\n      swap1\n      pop\n        /* \"#utility.yul\":2905:2906   */\n      dup2\n        /* \"#utility.yul\":2899:2903   */\n      dup2\n        /* \"#utility.yul\":2896:2907   */\n      gt\n        /* \"#utility.yul\":2893:2930   */\n      iszero\n      tag_127\n      jumpi\n        /* \"#utility.yul\":2910:2928   */\n      tag_128\n      tag_85\n      jump\t// in\n    tag_128:\n        /* \"#utility.yul\":2893:2930   */\n    tag_127:\n        /* \"#utility.yul\":2743:2937   */\n      swap3\n      swap2\n      pop\n      pop\n      jump\t// out\n        /* \"#utility.yul\":2943:3090   */\n    tag_86:\n        /* \"#utility.yul\":3044:3055   */\n      0x00\n        /* \"#utility.yul\":3081:3084   */\n      dup2\n        /* \"#utility.yul\":3066:3084   */\n      swap1\n      pop\n        /* \"#utility.yul\":2943:3090   */\n      swap3\n      swap2\n      pop\n      pop\n      jump\t// out\n        /* \"#utility.yul\":3096:3210   */\n    tag_87:\n      pop\n      jump\t// out\n        /* \"#utility.yul\":3216:3614   */\n    tag_88:\n        /* \"#utility.yul\":3375:3378   */\n      0x00\n        /* \"#utility.yul\":3396:3479   */\n      tag_132\n        /* \"#utility.yul\":3477:3478   */\n      0x00\n        /* \"#utility.yul\":3472:3475   */\n      dup4\n        /* \"#utility.yul\":3396:3479   */\n      tag_86\n      jump\t// in\n    tag_132:\n        /* \"#utility.yul\":3389:3479   */\n      swap2\n      pop\n        /* \"#utility.yul\":3488:3581   */\n      tag_133\n        /* \"#utility.yul\":3577:3580   */\n      dup3\n        /* \"#utility.yul\":3488:3581   */\n      tag_87\n      jump\t// in\n    tag_133:\n        /* \"#utility.yul\":3606:3607   */\n      0x00\n        /* \"#utility.yul\":3601:3604   */\n      dup3\n        /* \"#utility.yul\":3597:3608   */\n      add\n        /* \"#utility.yul\":3590:3608   */\n      swap1\n      pop\n        /* \"#utility.yul\":3216:3614   */\n      swap2\n      swap1\n      pop\n      jump\t// out\n        /* \"#utility.yul\":3620:3999   */\n    tag_51:\n        /* \"#utility.yul\":3804:3807   */\n      0x00\n        /* \"#utility.yul\":3826:3973   */\n      tag_135\n        /* \"#utility.yul\":3969:3972   */\n      dup3\n        /* \"#utility.yul\":3826:3973   */\n      tag_88\n      jump\t// in\n    tag_135:\n        /* \"#utility.yul\":3819:3973   */\n      swap2\n      pop\n        /* \"#utility.yul\":3990:3993   */\n      dup2\n        /* \"#utility.yul\":3983:3993   */\n      swap1\n      pop\n        /* \"#utility.yul\":3620:3999   */\n      swap2\n      swap1\n      pop\n      jump\t// out\n        /* \"#utility.yul\":4005:4123   */\n    tag_89:\n        /* \"#utility.yul\":4092:4116   */\n      tag_137\n        /* \"#utility.yul\":4110:4115   */\n      dup2\n        /* \"#utility.yul\":4092:4116   */\n      tag_80\n      jump\t// in\n    tag_137:\n        /* \"#utility.yul\":4087:4090   */\n      dup3\n        /* \"#utility.yul\":4080:4117   */\n      mstore\n        /* \"#utility.yul\":4005:4123   */\n      pop\n      pop\n      jump\t// out\n        /* \"#utility.yul\":4129:4461   */\n    tag_57:\n        /* \"#utility.yul\":4250:4254   */\n      0x00\n        /* \"#utility.yul\":4288:4290   */\n      0x40\n        /* \"#utility.yul\":4277:4286   */\n      dup3\n        /* \"#utility.yul\":4273:4291   */\n      add\n        /* \"#utility.yul\":4265:4291   */\n      swap1\n      pop\n        /* \"#utility.yul\":4301:4372   */\n      tag_139\n        /* \"#utility.yul\":4369:4370   */\n      0x00\n        /* \"#utility.yul\":4358:4367   */\n      dup4\n        /* \"#utility.yul\":4354:4371   */\n      add\n        /* \"#utility.yul\":4345:4351   */\n      dup6\n        /* \"#utility.yul\":4301:4372   */\n      tag_89\n      jump\t// in\n    tag_139:\n        /* \"#utility.yul\":4382:4454   */\n      tag_140\n        /* \"#utility.yul\":4450:4452   */\n      0x20\n        /* \"#utility.yul\":4439:4448   */\n      dup4\n        /* \"#utility.yul\":4435:4453   */\n      add\n        /* \"#utility.yul\":4426:4432   */\n      dup5\n        /* \"#utility.yul\":4382:4454   */\n      tag_75\n      jump\t// in\n    tag_140:\n        /* \"#utility.yul\":4129:4461   */\n      swap4\n      swap3\n      pop\n      pop\n      pop\n      jump\t// out\n        /* \"#utility.yul\":4467:4658   */\n    tag_62:\n        /* \"#utility.yul\":4507:4510   */\n      0x00\n        /* \"#utility.yul\":4526:4546   */\n      tag_142\n        /* \"#utility.yul\":4544:4545   */\n      dup3\n        /* \"#utility.yul\":4526:4546   */\n      tag_74\n      jump\t// in\n    tag_142:\n        /* \"#utility.yul\":4521:4546   */\n      swap2\n      pop\n        /* \"#utility.yul\":4560:4580   */\n      tag_143\n        /* \"#utility.yul\":4578:4579   */\n      dup4\n        /* \"#utility.yul\":4560:4580   */\n      tag_74\n      jump\t// in\n    tag_143:\n        /* \"#utility.yul\":4555:4580   */\n      swap3\n      pop\n        /* \"#utility.yul\":4603:4604   */\n      dup3\n        /* \"#utility.yul\":4600:4601   */\n      dup3\n        /* \"#utility.yul\":4596:4605   */\n      add\n        /* \"#utility.yul\":4589:4605   */\n      swap1\n      pop\n        /* \"#utility.yul\":4624:4627   */\n      dup1\n        /* \"#utility.yul\":4621:4622   */\n      dup3\n        /* \"#utility.yul\":4618:4628   */\n      gt\n        /* \"#utility.yul\":4615:4651   */\n      iszero\n      tag_144\n      jumpi\n        /* \"#utility.yul\":4631:4649   */\n      tag_145\n      tag_85\n      jump\t// in\n    tag_145:\n        /* \"#utility.yul\":4615:4651   */\n    tag_144:\n        /* \"#utility.yul\":4467:4658   */\n      swap3\n      swap2\n      pop\n      pop\n      jump\t// out\n\n    auxdata: 0xa2646970667358221220405743653758085d349b2f2ff72ee981decc3b38ea1e179b60a50a0c00a5dc3c64736f6c634300081e0033\n}\n",
				"bytecode": {
					"linkReferences": {},
					"object": "60a060405234801561000f575f5ffd5b50604051610a97380380610a9783398181016040528101906100319190610102565b5f8211610073576040517f08c379a000000000000000000000000000000000000000000000000000000000815260040161006a9061019a565b60405180910390fd5b81608081815250505f81116100bd576040517f08c379a00000000000000000000000000000000000000000000000000000000081526004016100b490610202565b60405180910390fd5b806001819055505050610220565b5f5ffd5b5f819050919050565b6100e1816100cf565b81146100eb575f5ffd5b50565b5f815190506100fc816100d8565b92915050565b5f5f60408385031215610118576101176100cb565b5b5f610125858286016100ee565b9250506020610136858286016100ee565b9150509250929050565b5f82825260208201905092915050565b7f636170203d2030000000000000000000000000000000000000000000000000005f82015250565b5f610184600783610140565b915061018f82610150565b602082019050919050565b5f6020820190508181035f8301526101b181610178565b9050919050565b7f4174206c656173742031207472616e73616374696f6e000000000000000000005f82015250565b5f6101ec601683610140565b91506101f7826101b8565b602082019050919050565b5f6020820190508181035f830152610219816101e0565b9050919050565b60805161085861023f5f395f81816101d301526103a601526108585ff3fe60806040526004361061007a575f3560e01c8063d0e30db01161004d578063d0e30db01461012a578063ecbea24d14610134578063ed4125d01461015e578063f893fdc0146101885761007a565b806320d786b51461007e57806327e235e3146100a8578063835fc6ca146100e4578063cc9993f614610100575b5f5ffd5b348015610089575f5ffd5b506100926101b3565b60405161009f91906105fa565b60405180910390f35b3480156100b3575f5ffd5b506100ce60048036038101906100c99190610671565b6101b9565b6040516100db91906105fa565b60405180910390f35b6100fe60048036038101906100f991906106c6565b6101cd565b005b34801561010b575f5ffd5b506101146103a4565b60405161012191906105fa565b60405180910390f35b6101326103c8565b005b34801561013f575f5ffd5b506101486104a9565b60405161015591906105fa565b60405180910390f35b348015610169575f5ffd5b506101726104af565b60405161017f91906105fa565b60405180910390f35b348015610193575f5ffd5b5061019c6104b5565b6040516101aa9291906106f1565b60405180910390f35b60035481565b5f602052805f5260405f205f915090505481565b610234817f00000000000000000000000000000000000000000000000000000000000000005f5f3373ffffffffffffffffffffffffffffffffffffffff1673ffffffffffffffffffffffffffffffffffffffff1681526020019081526020015f20546104c5565b805f5f3373ffffffffffffffffffffffffffffffffffffffff1673ffffffffffffffffffffffffffffffffffffffff1681526020019081526020015f205461027c9190610745565b5f5f3373ffffffffffffffffffffffffffffffffffffffff1673ffffffffffffffffffffffffffffffffffffffff1681526020019081526020015f20819055505f3373ffffffffffffffffffffffffffffffffffffffff16826040516102e1906107a5565b5f6040518083038185875af1925050503d805f811461031b576040519150601f19603f3d011682016040523d82523d5f602084013e610320565b606091505b505090508061035b576040517fdccf81a900000000000000000000000000000000000000000000000000000000815260040160405180910390fd5b6001600354016003819055507f259ba9bd5e499315c8db581725868b54b1aa9905f229201d647d2f023875b67133836040516103989291906107c8565b60405180910390a15050565b7f000000000000000000000000000000000000000000000000000000000000000081565b6103d134610558565b345f5f3373ffffffffffffffffffffffffffffffffffffffff1673ffffffffffffffffffffffffffffffffffffffff1681526020019081526020015f205f82825461041c91906107ef565b9250508190555f5f3373ffffffffffffffffffffffffffffffffffffffff1673ffffffffffffffffffffffffffffffffffffffff1681526020019081526020015f20819055506001600254016002819055507f697d5fef1116e2cfe67456163e0bd4f57ab5fd87dcc703a1ce355d1cb1c635bd333460405161049f9291906107c8565b60405180910390a1565b60015481565b60025481565b5f5f600254915060035490509091565b8183111561050c5782826040517fa5d46ef20000000000000000000000000000000000000000000000000000000081526004016105039291906106f1565b60405180910390fd5b808311156105535780836040517fc7a28c7900000000000000000000000000000000000000000000000000000000815260040161054a9291906106f1565b60405180910390fd5b505050565b5f8103610591576040517f09224e7f00000000000000000000000000000000000000000000000000000000815260040160405180910390fd5b600154600254106105df576002546001546040517fa5d46ef20000000000000000000000000000000000000000000000000000000081526004016105d69291906106f1565b60405180910390fd5b50565b5f819050919050565b6105f4816105e2565b82525050565b5f60208201905061060d5f8301846105eb565b92915050565b5f5ffd5b5f73ffffffffffffffffffffffffffffffffffffffff82169050919050565b5f61064082610617565b9050919050565b61065081610636565b811461065a575f5ffd5b50565b5f8135905061066b81610647565b92915050565b5f6020828403121561068657610685610613565b5b5f6106938482850161065d565b91505092915050565b6106a5816105e2565b81146106af575f5ffd5b50565b5f813590506106c08161069c565b92915050565b5f602082840312156106db576106da610613565b5b5f6106e8848285016106b2565b91505092915050565b5f6040820190506107045f8301856105eb565b61071160208301846105eb565b9392505050565b7f4e487b71000000000000000000000000000000000000000000000000000000005f52601160045260245ffd5b5f61074f826105e2565b915061075a836105e2565b925082820390508181111561077257610771610718565b5b92915050565b5f81905092915050565b50565b5f6107905f83610778565b915061079b82610782565b5f82019050919050565b5f6107af82610785565b9150819050919050565b6107c281610636565b82525050565b5f6040820190506107db5f8301856107b9565b6107e860208301846105eb565b9392505050565b5f6107f9826105e2565b9150610804836105e2565b925082820190508082111561081c5761081b610718565b5b9291505056fea2646970667358221220405743653758085d349b2f2ff72ee981decc3b38ea1e179b60a50a0c00a5dc3c64736f6c634300081e0033",
					"opcodes": "PUSH1 0xA0 PUSH1 0x40 MSTORE CALLVALUE DUP1 ISZERO PUSH2 0xF JUMPI PUSH0 PUSH0 REVERT JUMPDEST POP PUSH1 0x40 MLOAD PUSH2 0xA97 CODESIZE SUB DUP1 PUSH2 0xA97 DUP4 CODECOPY DUP2 DUP2 ADD PUSH1 0x40 MSTORE DUP2 ADD SWAP1 PUSH2 0x31 SWAP2 SWAP1 PUSH2 0x102 JUMP JUMPDEST PUSH0 DUP3 GT PUSH2 0x73 JUMPI PUSH1 0x40 MLOAD PUSH32 0x8C379A000000000000000000000000000000000000000000000000000000000 DUP2 MSTORE PUSH1 0x4 ADD PUSH2 0x6A SWAP1 PUSH2 0x19A JUMP JUMPDEST PUSH1 0x40 MLOAD DUP1 SWAP2 SUB SWAP1 REVERT JUMPDEST DUP2 PUSH1 0x80 DUP2 DUP2 MSTORE POP POP PUSH0 DUP2 GT PUSH2 0xBD JUMPI PUSH1 0x40 MLOAD PUSH32 0x8C379A000000000000000000000000000000000000000000000000000000000 DUP2 MSTORE PUSH1 0x4 ADD PUSH2 0xB4 SWAP1 PUSH2 0x202 JUMP JUMPDEST PUSH1 0x40 MLOAD DUP1 SWAP2 SUB SWAP1 REVERT JUMPDEST DUP1 PUSH1 0x1 DUP2 SWAP1 SSTORE POP POP POP PUSH2 0x220 JUMP JUMPDEST PUSH0 PUSH0 REVERT JUMPDEST PUSH0 DUP2 SWAP1 POP SWAP2 SWAP1 POP JUMP JUMPDEST PUSH2 0xE1 DUP2 PUSH2 0xCF JUMP JUMPDEST DUP2 EQ PUSH2 0xEB JUMPI PUSH0 PUSH0 REVERT JUMPDEST POP JUMP JUMPDEST PUSH0 DUP2 MLOAD SWAP1 POP PUSH2 0xFC DUP2 PUSH2 0xD8 JUMP JUMPDEST SWAP3 SWAP2 POP POP JUMP JUMPDEST PUSH0 PUSH0 PUSH1 0x40 DUP4 DUP6 SUB SLT ISZERO PUSH2 0x118 JUMPI PUSH2 0x117 PUSH2 0xCB JUMP JUMPDEST JUMPDEST PUSH0 PUSH2 0x125 DUP6 DUP3 DUP7 ADD PUSH2 0xEE JUMP JUMPDEST SWAP3 POP POP PUSH1 0x20 PUSH2 0x136 DUP6 DUP3 DUP7 ADD PUSH2 0xEE JUMP JUMPDEST SWAP2 POP POP SWAP3 POP SWAP3 SWAP1 POP JUMP JUMPDEST PUSH0 DUP3 DUP3 MSTORE PUSH1 0x20 DUP3 ADD SWAP1 POP SWAP3 SWAP2 POP POP JUMP JUMPDEST PUSH32 0x636170203D203000000000000000000000000000000000000000000000000000 PUSH0 DUP3 ADD MSTORE POP JUMP JUMPDEST PUSH0 PUSH2 0x184 PUSH1 0x7 DUP4 PUSH2 0x140 JUMP JUMPDEST SWAP2 POP PUSH2 0x18F DUP3 PUSH2 0x150 JUMP JUMPDEST PUSH1 0x20 DUP3 ADD SWAP1 POP SWAP2 SWAP1 POP JUMP JUMPDEST PUSH0 PUSH1 0x20 DUP3 ADD SWAP1 POP DUP2 DUP2 SUB PUSH0 DUP4 ADD MSTORE PUSH2 0x1B1 DUP2 PUSH2 0x178 JUMP JUMPDEST SWAP1 POP SWAP2 SWAP1 POP JUMP JUMPDEST PUSH32 0x4174206C656173742031207472616E73616374696F6E00000000000000000000 PUSH0 DUP3 ADD MSTORE POP JUMP JUMPDEST PUSH0 PUSH2 0x1EC PUSH1 0x16 DUP4 PUSH2 0x140 JUMP JUMPDEST SWAP2 POP PUSH2 0x1F7 DUP3 PUSH2 0x1B8 JUMP JUMPDEST PUSH1 0x20 DUP3 ADD SWAP1 POP SWAP2 SWAP1 POP JUMP JUMPDEST PUSH0 PUSH1 0x20 DUP3 ADD SWAP1 POP DUP2 DUP2 SUB PUSH0 DUP4 ADD MSTORE PUSH2 0x219 DUP2 PUSH2 0x1E0 JUMP JUMPDEST SWAP1 POP SWAP2 SWAP1 POP JUMP JUMPDEST PUSH1 0x80 MLOAD PUSH2 0x858 PUSH2 0x23F PUSH0 CODECOPY PUSH0 DUP2 DUP2 PUSH2 0x1D3 ADD MSTORE PUSH2 0x3A6 ADD MSTORE PUSH2 0x858 PUSH0 RETURN INVALID PUSH1 0x80 PUSH1 0x40 MSTORE PUSH1 0x4 CALLDATASIZE LT PUSH2 0x7A JUMPI PUSH0 CALLDATALOAD PUSH1 0xE0 SHR DUP1 PUSH4 0xD0E30DB0 GT PUSH2 0x4D JUMPI DUP1 PUSH4 0xD0E30DB0 EQ PUSH2 0x12A JUMPI DUP1 PUSH4 0xECBEA24D EQ PUSH2 0x134 JUMPI DUP1 PUSH4 0xED4125D0 EQ PUSH2 0x15E JUMPI DUP1 PUSH4 0xF893FDC0 EQ PUSH2 0x188 JUMPI PUSH2 0x7A JUMP JUMPDEST DUP1 PUSH4 0x20D786B5 EQ PUSH2 0x7E JUMPI DUP1 PUSH4 0x27E235E3 EQ PUSH2 0xA8 JUMPI DUP1 PUSH4 0x835FC6CA EQ PUSH2 0xE4 JUMPI DUP1 PUSH4 0xCC9993F6 EQ PUSH2 0x100 JUMPI JUMPDEST PUSH0 PUSH0 REVERT JUMPDEST CALLVALUE DUP1 ISZERO PUSH2 0x89 JUMPI PUSH0 PUSH0 REVERT JUMPDEST POP PUSH2 0x92 PUSH2 0x1B3 JUMP JUMPDEST PUSH1 0x40 MLOAD PUSH2 0x9F SWAP2 SWAP1 PUSH2 0x5FA JUMP JUMPDEST PUSH1 0x40 MLOAD DUP1 SWAP2 SUB SWAP1 RETURN JUMPDEST CALLVALUE DUP1 ISZERO PUSH2 0xB3 JUMPI PUSH0 PUSH0 REVERT JUMPDEST POP PUSH2 0xCE PUSH1 0x4 DUP1 CALLDATASIZE SUB DUP2 ADD SWAP1 PUSH2 0xC9 SWAP2 SWAP1 PUSH2 0x671 JUMP JUMPDEST PUSH2 0x1B9 JUMP JUMPDEST PUSH1 0x40 MLOAD PUSH2 0xDB SWAP2 SWAP1 PUSH2 0x5FA JUMP JUMPDEST PUSH1 0x40 MLOAD DUP1 SWAP2 SUB SWAP1 RETURN JUMPDEST PUSH2 0xFE PUSH1 0x4 DUP1 CALLDATASIZE SUB DUP2 ADD SWAP1 PUSH2 0xF9 SWAP2 SWAP1 PUSH2 0x6C6 JUMP JUMPDEST PUSH2 0x1CD JUMP JUMPDEST STOP JUMPDEST CALLVALUE DUP1 ISZERO PUSH2 0x10B JUMPI PUSH0 PUSH0 REVERT JUMPDEST POP PUSH2 0x114 PUSH2 0x3A4 JUMP JUMPDEST PUSH1 0x40 MLOAD PUSH2 0x121 SWAP2 SWAP1 PUSH2 0x5FA JUMP JUMPDEST PUSH1 0x40 MLOAD DUP1 SWAP2 SUB SWAP1 RETURN JUMPDEST PUSH2 0x132 PUSH2 0x3C8 JUMP JUMPDEST STOP JUMPDEST CALLVALUE DUP1 ISZERO PUSH2 0x13F JUMPI PUSH0 PUSH0 REVERT JUMPDEST POP PUSH2 0x148 PUSH2 0x4A9 JUMP JUMPDEST PUSH1 0x40 MLOAD PUSH2 0x155 SWAP2 SWAP1 PUSH2 0x5FA JUMP JUMPDEST PUSH1 0x40 MLOAD DUP1 SWAP2 SUB SWAP1 RETURN JUMPDEST CALLVALUE DUP1 ISZERO PUSH2 0x169 JUMPI PUSH0 PUSH0 REVERT JUMPDEST POP PUSH2 0x172 PUSH2 0x4AF JUMP JUMPDEST PUSH1 0x40 MLOAD PUSH2 0x17F SWAP2 SWAP1 PUSH2 0x5FA JUMP JUMPDEST PUSH1 0x40 MLOAD DUP1 SWAP2 SUB SWAP1 RETURN JUMPDEST CALLVALUE DUP1 ISZERO PUSH2 0x193 JUMPI PUSH0 PUSH0 REVERT JUMPDEST POP PUSH2 0x19C PUSH2 0x4B5 JUMP JUMPDEST PUSH1 0x40 MLOAD PUSH2 0x1AA SWAP3 SWAP2 SWAP1 PUSH2 0x6F1 JUMP JUMPDEST PUSH1 0x40 MLOAD DUP1 SWAP2 SUB SWAP1 RETURN JUMPDEST PUSH1 0x3 SLOAD DUP2 JUMP JUMPDEST PUSH0 PUSH1 0x20 MSTORE DUP1 PUSH0 MSTORE PUSH1 0x40 PUSH0 KECCAK256 PUSH0 SWAP2 POP SWAP1 POP SLOAD DUP2 JUMP JUMPDEST PUSH2 0x234 DUP2 PUSH32 0x0 PUSH0 PUSH0 CALLER PUSH20 0xFFFFFFFFFFFFFFFFFFFFFFFFFFFFFFFFFFFFFFFF AND PUSH20 0xFFFFFFFFFFFFFFFFFFFFFFFFFFFFFFFFFFFFFFFF AND DUP2 MSTORE PUSH1 0x20 ADD SWAP1 DUP2 MSTORE PUSH1 0x20 ADD PUSH0 KECCAK256 SLOAD PUSH2 0x4C5 JUMP JUMPDEST DUP1 PUSH0 PUSH0 CALLER PUSH20 0xFFFFFFFFFFFFFFFFFFFFFFFFFFFFFFFFFFFFFFFF AND PUSH20 0xFFFFFFFFFFFFFFFFFFFFFFFFFFFFFFFFFFFFFFFF AND DUP2 MSTORE PUSH1 0x20 ADD SWAP1 DUP2 MSTORE PUSH1 0x20 ADD PUSH0 KECCAK256 SLOAD PUSH2 0x27C SWAP2 SWAP1 PUSH2 0x745 JUMP JUMPDEST PUSH0 PUSH0 CALLER PUSH20 0xFFFFFFFFFFFFFFFFFFFFFFFFFFFFFFFFFFFFFFFF AND PUSH20 0xFFFFFFFFFFFFFFFFFFFFFFFFFFFFFFFFFFFFFFFF AND DUP2 MSTORE PUSH1 0x20 ADD SWAP1 DUP2 MSTORE PUSH1 0x20 ADD PUSH0 KECCAK256 DUP2 SWAP1 SSTORE POP PUSH0 CALLER PUSH20 0xFFFFFFFFFFFFFFFFFFFFFFFFFFFFFFFFFFFFFFFF AND DUP3 PUSH1 0x40 MLOAD PUSH2 0x2E1 SWAP1 PUSH2 0x7A5 JUMP JUMPDEST PUSH0 PUSH1 0x40 MLOAD DUP1 DUP4 SUB DUP2 DUP6 DUP8 GAS CALL SWAP3 POP POP POP RETURNDATASIZE DUP1 PUSH0 DUP2 EQ PUSH2 0x31B JUMPI PUSH1 0x40 MLOAD SWAP2 POP PUSH1 0x1F NOT PUSH1 0x3F RETURNDATASIZE ADD AND DUP3 ADD PUSH1 0x40 MSTORE RETURNDATASIZE DUP3 MSTORE RETURNDATASIZE PUSH0 PUSH1 0x20 DUP5 ADD RETURNDATACOPY PUSH2 0x320 JUMP JUMPDEST PUSH1 0x60 SWAP2 POP JUMPDEST POP POP SWAP1 POP DUP1 PUSH2 0x35B JUMPI PUSH1 0x40 MLOAD PUSH32 0xDCCF81A900000000000000000000000000000000000000000000000000000000 DUP2 MSTORE PUSH1 0x4 ADD PUSH1 0x40 MLOAD DUP1 SWAP2 SUB SWAP1 REVERT JUMPDEST PUSH1 0x1 PUSH1 0x3 SLOAD ADD PUSH1 0x3 DUP2 SWAP1 SSTORE POP PUSH32 0x259BA9BD5E499315C8DB581725868B54B1AA9905F229201D647D2F023875B671 CALLER DUP4 PUSH1 0x40 MLOAD PUSH2 0x398 SWAP3 SWAP2 SWAP1 PUSH2 0x7C8 JUMP JUMPDEST PUSH1 0x40 MLOAD DUP1 SWAP2 SUB SWAP1 LOG1 POP POP JUMP JUMPDEST PUSH32 0x0 DUP2 JUMP JUMPDEST PUSH2 0x3D1 CALLVALUE PUSH2 0x558 JUMP JUMPDEST CALLVALUE PUSH0 PUSH0 CALLER PUSH20 0xFFFFFFFFFFFFFFFFFFFFFFFFFFFFFFFFFFFFFFFF AND PUSH20 0xFFFFFFFFFFFFFFFFFFFFFFFFFFFFFFFFFFFFFFFF AND DUP2 MSTORE PUSH1 0x20 ADD SWAP1 DUP2 MSTORE PUSH1 0x20 ADD PUSH0 KECCAK256 PUSH0 DUP3 DUP3 SLOAD PUSH2 0x41C SWAP2 SWAP1 PUSH2 0x7EF JUMP JUMPDEST SWAP3 POP POP DUP2 SWAP1 SSTORE PUSH0 PUSH0 CALLER PUSH20 0xFFFFFFFFFFFFFFFFFFFFFFFFFFFFFFFFFFFFFFFF AND PUSH20 0xFFFFFFFFFFFFFFFFFFFFFFFFFFFFFFFFFFFFFFFF AND DUP2 MSTORE PUSH1 0x20 ADD SWAP1 DUP2 MSTORE PUSH1 0x20 ADD PUSH0 KECCAK256 DUP2 SWAP1 SSTORE POP PUSH1 0x1 PUSH1 0x2 SLOAD ADD PUSH1 0x2 DUP2 SWAP1 SSTORE POP PUSH32 0x697D5FEF1116E2CFE67456163E0BD4F57AB5FD87DCC703A1CE355D1CB1C635BD CALLER CALLVALUE PUSH1 0x40 MLOAD PUSH2 0x49F SWAP3 SWAP2 SWAP1 PUSH2 0x7C8 JUMP JUMPDEST PUSH1 0x40 MLOAD DUP1 SWAP2 SUB SWAP1 LOG1 JUMP JUMPDEST PUSH1 0x1 SLOAD DUP2 JUMP JUMPDEST PUSH1 0x2 SLOAD DUP2 JUMP JUMPDEST PUSH0 PUSH0 PUSH1 0x2 SLOAD SWAP2 POP PUSH1 0x3 SLOAD SWAP1 POP SWAP1 SWAP2 JUMP JUMPDEST DUP2 DUP4 GT ISZERO PUSH2 0x50C JUMPI DUP3 DUP3 PUSH1 0x40 MLOAD PUSH32 0xA5D46EF200000000000000000000000000000000000000000000000000000000 DUP2 MSTORE PUSH1 0x4 ADD PUSH2 0x503 SWAP3 SWAP2 SWAP1 PUSH2 0x6F1 JUMP JUMPDEST PUSH1 0x40 MLOAD DUP1 SWAP2 SUB SWAP1 REVERT JUMPDEST DUP1 DUP4 GT ISZERO PUSH2 0x553 JUMPI DUP1 DUP4 PUSH1 0x40 MLOAD PUSH32 0xC7A28C7900000000000000000000000000000000000000000000000000000000 DUP2 MSTORE PUSH1 0x4 ADD PUSH2 0x54A SWAP3 SWAP2 SWAP1 PUSH2 0x6F1 JUMP JUMPDEST PUSH1 0x40 MLOAD DUP1 SWAP2 SUB SWAP1 REVERT JUMPDEST POP POP POP JUMP JUMPDEST PUSH0 DUP2 SUB PUSH2 0x591 JUMPI PUSH1 0x40 MLOAD PUSH32 0x9224E7F00000000000000000000000000000000000000000000000000000000 DUP2 MSTORE PUSH1 0x4 ADD PUSH1 0x40 MLOAD DUP1 SWAP2 SUB SWAP1 REVERT JUMPDEST PUSH1 0x1 SLOAD PUSH1 0x2 SLOAD LT PUSH2 0x5DF JUMPI PUSH1 0x2 SLOAD PUSH1 0x1 SLOAD PUSH1 0x40 MLOAD PUSH32 0xA5D46EF200000000000000000000000000000000000000000000000000000000 DUP2 MSTORE PUSH1 0x4 ADD PUSH2 0x5D6 SWAP3 SWAP2 SWAP1 PUSH2 0x6F1 JUMP JUMPDEST PUSH1 0x40 MLOAD DUP1 SWAP2 SUB SWAP1 REVERT JUMPDEST POP JUMP JUMPDEST PUSH0 DUP2 SWAP1 POP SWAP2 SWAP1 POP JUMP JUMPDEST PUSH2 0x5F4 DUP2 PUSH2 0x5E2 JUMP JUMPDEST DUP3 MSTORE POP POP JUMP JUMPDEST PUSH0 PUSH1 0x20 DUP3 ADD SWAP1 POP PUSH2 0x60D PUSH0 DUP4 ADD DUP5 PUSH2 0x5EB JUMP JUMPDEST SWAP3 SWAP2 POP POP JUMP JUMPDEST PUSH0 PUSH0 REVERT JUMPDEST PUSH0 PUSH20 0xFFFFFFFFFFFFFFFFFFFFFFFFFFFFFFFFFFFFFFFF DUP3 AND SWAP1 POP SWAP2 SWAP1 POP JUMP JUMPDEST PUSH0 PUSH2 0x640 DUP3 PUSH2 0x617 JUMP JUMPDEST SWAP1 POP SWAP2 SWAP1 POP JUMP JUMPDEST PUSH2 0x650 DUP2 PUSH2 0x636 JUMP JUMPDEST DUP2 EQ PUSH2 0x65A JUMPI PUSH0 PUSH0 REVERT JUMPDEST POP JUMP JUMPDEST PUSH0 DUP2 CALLDATALOAD SWAP1 POP PUSH2 0x66B DUP2 PUSH2 0x647 JUMP JUMPDEST SWAP3 SWAP2 POP POP JUMP JUMPDEST PUSH0 PUSH1 0x20 DUP3 DUP5 SUB SLT ISZERO PUSH2 0x686 JUMPI PUSH2 0x685 PUSH2 0x613 JUMP JUMPDEST JUMPDEST PUSH0 PUSH2 0x693 DUP5 DUP3 DUP6 ADD PUSH2 0x65D JUMP JUMPDEST SWAP2 POP POP SWAP3 SWAP2 POP POP JUMP JUMPDEST PUSH2 0x6A5 DUP2 PUSH2 0x5E2 JUMP JUMPDEST DUP2 EQ PUSH2 0x6AF JUMPI PUSH0 PUSH0 REVERT JUMPDEST POP JUMP JUMPDEST PUSH0 DUP2 CALLDATALOAD SWAP1 POP PUSH2 0x6C0 DUP2 PUSH2 0x69C JUMP JUMPDEST SWAP3 SWAP2 POP POP JUMP JUMPDEST PUSH0 PUSH1 0x20 DUP3 DUP5 SUB SLT ISZERO PUSH2 0x6DB JUMPI PUSH2 0x6DA PUSH2 0x613 JUMP JUMPDEST JUMPDEST PUSH0 PUSH2 0x6E8 DUP5 DUP3 DUP6 ADD PUSH2 0x6B2 JUMP JUMPDEST SWAP2 POP POP SWAP3 SWAP2 POP POP JUMP JUMPDEST PUSH0 PUSH1 0x40 DUP3 ADD SWAP1 POP PUSH2 0x704 PUSH0 DUP4 ADD DUP6 PUSH2 0x5EB JUMP JUMPDEST PUSH2 0x711 PUSH1 0x20 DUP4 ADD DUP5 PUSH2 0x5EB JUMP JUMPDEST SWAP4 SWAP3 POP POP POP JUMP JUMPDEST PUSH32 0x4E487B7100000000000000000000000000000000000000000000000000000000 PUSH0 MSTORE PUSH1 0x11 PUSH1 0x4 MSTORE PUSH1 0x24 PUSH0 REVERT JUMPDEST PUSH0 PUSH2 0x74F DUP3 PUSH2 0x5E2 JUMP JUMPDEST SWAP2 POP PUSH2 0x75A DUP4 PUSH2 0x5E2 JUMP JUMPDEST SWAP3 POP DUP3 DUP3 SUB SWAP1 POP DUP2 DUP2 GT ISZERO PUSH2 0x772 JUMPI PUSH2 0x771 PUSH2 0x718 JUMP JUMPDEST JUMPDEST SWAP3 SWAP2 POP POP JUMP JUMPDEST PUSH0 DUP2 SWAP1 POP SWAP3 SWAP2 POP POP JUMP JUMPDEST POP JUMP JUMPDEST PUSH0 PUSH2 0x790 PUSH0 DUP4 PUSH2 0x778 JUMP JUMPDEST SWAP2 POP PUSH2 0x79B DUP3 PUSH2 0x782 JUMP JUMPDEST PUSH0 DUP3 ADD SWAP1 POP SWAP2 SWAP1 POP JUMP JUMPDEST PUSH0 PUSH2 0x7AF DUP3 PUSH2 0x785 JUMP JUMPDEST SWAP2 POP DUP2 SWAP1 POP SWAP2 SWAP1 POP JUMP JUMPDEST PUSH2 0x7C2 DUP2 PUSH2 0x636 JUMP JUMPDEST DUP3 MSTORE POP POP JUMP JUMPDEST PUSH0 PUSH1 0x40 DUP3 ADD SWAP1 POP PUSH2 0x7DB PUSH0 DUP4 ADD DUP6 PUSH2 0x7B9 JUMP JUMPDEST PUSH2 0x7E8 PUSH1 0x20 DUP4 ADD DUP5 PUSH2 0x5EB JUMP JUMPDEST SWAP4 SWAP3 POP POP POP JUMP JUMPDEST PUSH0 PUSH2 0x7F9 DUP3 PUSH2 0x5E2 JUMP JUMPDEST SWAP2 POP PUSH2 0x804 DUP4 PUSH2 0x5E2 JUMP JUMPDEST SWAP3 POP DUP3 DUP3 ADD SWAP1 POP DUP1 DUP3 GT ISZERO PUSH2 0x81C JUMPI PUSH2 0x81B PUSH2 0x718 JUMP JUMPDEST JUMPDEST SWAP3 SWAP2 POP POP JUMP INVALID LOG2 PUSH5 0x6970667358 0x22 SLT KECCAK256 BLOCKHASH JUMPI NUMBER PUSH6 0x3758085D349B 0x2F 0x2F 0xF7 0x2E 0xE9 DUP2 0xDE 0xCC EXTCODESIZE CODESIZE 0xEA 0x1E OR SWAP12 PUSH1 0xA5 EXP 0xC STOP 0xA5 0xDC EXTCODECOPY PUSH5 0x736F6C6343 STOP ADDMOD 0x1E STOP CALLER "
				},
				"gasEstimates": {
					"creation": {
						"codeDepositCost": "427200",
						"executionCost": "infinite",
						"totalCost": "infinite"
					},
					"external": {
						"WITHDRAW_MAX()": "infinite",
						"balances(address)": "2824",
						"bankCap()": "2447",
						"bankStats()": "infinite",
						"deposit()": "infinite",
						"transactionsCounter()": "2469",
						"withdrawal(uint256)": "infinite",
						"withdrawalCounter()": "2426"
					},
					"internal": {
						"_depostiRequierements(uint256)": "infinite",
						"_withdrawlRequierements(uint256,uint256,uint256)": "infinite"
					}
				},
				"methodIdentifiers": {
					"WITHDRAW_MAX()": "cc9993f6",
					"balances(address)": "27e235e3",
					"bankCap()": "ecbea24d",
					"bankStats()": "f893fdc0",
					"deposit()": "d0e30db0",
					"transactionsCounter()": "ed4125d0",
					"withdrawal(uint256)": "835fc6ca",
					"withdrawalCounter()": "20d786b5"
				}
			},
			"storageLayout": {
				"storage": [
					{
						"astId": 7,
						"contract": "contracts/KipuBank.sol:KipuBank",
						"label": "balances",
						"offset": 0,
						"slot": "0",
						"type": "t_mapping(t_address,t_uint256)"
					},
					{
						"astId": 13,
						"contract": "contracts/KipuBank.sol:KipuBank",
						"label": "bankCap",
						"offset": 0,
						"slot": "1",
						"type": "t_uint256"
					},
					{
						"astId": 16,
						"contract": "contracts/KipuBank.sol:KipuBank",
						"label": "transactionsCounter",
						"offset": 0,
						"slot": "2",
						"type": "t_uint256"
					},
					{
						"astId": 19,
						"contract": "contracts/KipuBank.sol:KipuBank",
						"label": "withdrawalCounter",
						"offset": 0,
						"slot": "3",
						"type": "t_uint256"
					}
				],
				"types": {
					"t_address": {
						"encoding": "inplace",
						"label": "address",
						"numberOfBytes": "20"
					},
					"t_mapping(t_address,t_uint256)": {
						"encoding": "mapping",
						"key": "t_address",
						"label": "mapping(address => uint256)",
						"numberOfBytes": "32",
						"value": "t_uint256"
					},
					"t_uint256": {
						"encoding": "inplace",
						"label": "uint256",
						"numberOfBytes": "32"
					}
				}
			},
			"userdoc": {
				"errors": {
					"capExceeded(uint256,uint256)": [
						{
							"notice": "error emitido cuando quiere retirar mas fondos idel total"
						}
					],
					"insufficientBalance(uint256,uint256)": [
						{
							"notice": "error emitido cuando quiere retirar fondos insuficientes"
						}
					],
					"transactionFailed()": [
						{
							"notice": "error emitido cuando falla una transacción"
						}
					],
					"wrongUser(address,address)": [
						{
							"notice": "error emitido cuando una dirección diferente al beneficiario intenta retirar"
						}
					],
					"zeroDeposit()": [
						{
							"notice": "error emitido cuando se ahce una transferencia de 0 wei"
						}
					]
				},
				"events": {
					"depositDone(address,uint256)": {
						"notice": "evento emitido cuando se realiza un nuevo deposito "
					},
					"withdrawalDone(address,uint256)": {
						"notice": "evento emitido cuando se realiza un retiro"
					}
				},
				"kind": "user",
				"methods": {
					"WITHDRAW_MAX()": {
						"notice": "mapping para almacenar el valor del cliente "
					},
					"balances(address)": {
						"notice": "mapping para almacenar el valor de los clientes "
					},
					"bankCap()": {
						"notice": "Limite maximo de transferencias"
					},
					"bankStats()": {
						"notice": "función para ver el estado de las transacciones"
					},
					"deposit()": {
						"notice": "función para depositar"
					},
					"transactionsCounter()": {
						"notice": "Contador de transacciones"
					},
					"withdrawal(uint256)": {
						"notice": "función para retirar"
					},
					"withdrawalCounter()": {
						"notice": "contador de extracciones"
					}
				},
				"notice": "Este es un contrato con fines educativos.",
				"version": 1
			}
		}
	}
}